:100000000C9458000C9477000C9477000C947700B3
:100010000C9477000C9477000C9477000C94770084
:100020000C9477000C9477000C9477000C94770074
:100030000C9477000C9477000C9477000C94770064
:100040000C9477000C9477000C9477000C94770054
:100050000C9477000C9477000C9477000C94770044
:100060000C9477000C9477000C9477000C94770034
:100070000C9477000C9477000C9477000C94770024
:100080000C9477000C9477000C947700BC00C300AC
:10009000FF0006011E0125012C0145017001A3018D
:1000A000DD01A901DD01BA01CB01D101DD01DD01D5
:1000B00011241FBECFEFD0E4DEBFCDBF11E0A0E022
:1000C000B1E0EAE0F4E000E00BBF02C007900D925F
:1000D000AE30B107D9F711E0AEE0B1E001C01D923A
:1000E000A231B107E1F70E94E1010C9403020C94E4
:1000F0000000CF93DF9300D01F92CDB7DEB7898386
:100100007B836A8389818A3031F48A819B81BC0137
:100110008DE00E94790080EC90E0FC018081882FC6
:1001200090E0807299270097B1F386EC90E02981E6
:10013000FC01208380E090E00F900F900F90DF9102
:10014000CF910895CF93DF93CDB7DEB780911001A3
:1001500090911101CC01A0E0B0E040E050E028E037
:1001600030E0841B950B2817390708F4D2C08A5B4E
:100170009F4FFC010C94FA0185E090E090931101EF
:1001800080931001CBC080E290E0FC018081882F39
:1001900090E0837099278330910539F486E090E0F0
:1001A000909311018093100129C080E290E0FC013E
:1001B0008081882F90E081709927009739F082E044
:1001C00090E0909311018093100118C080E290E0BC
:1001D000FC018081882F90E082709927009739F088
:1001E00084E090E0909311018093100107C081E0BA
:1001F00090E0909311018093100190C08FC083E034
:1002000090E0909311018093100188C080E290E00B
:10021000FC018081882F90E081709927009739F048
:1002200083E090E0909311018093100177C081E00A
:1002300090E0909311018093100170C087E090E0EE
:10024000909311018093100169C081E090E0909338
:1002500011018093100162C080E290E0FC01808176
:10026000882F90E0837099278330910539F486E0D8
:1002700090E0909311018093100150C081E090E0D4
:10028000909311018093100149C080E290E0FC013D
:100290008081882F90E0837099278330910539F40D
:1002A00086E090E0909311018093100118C080E2E5
:1002B00090E0FC018081882F90E082709927009760
:1002C00039F087E090E0909311018093100107C00E
:1002D00081E090E090931101809310011FC01EC037
:1002E00080E290E0FC018081882F90E08370992764
:1002F0008330910539F488E090E090931101809368
:1003000010010CC081E090E09093110180931001E6
:1003100005C010921101109210010000809110018F
:1003200090911101CC01A0E0B0E040E050E028E065
:1003300030E0841B950B28173907C0F1815B9F4F74
:10034000FC010C94FA0188E290E027E0FC01208394
:1003500035C088E290E0FC018081893050F488E269
:1003600090E028E230E0F90120812F5FFC0120833A
:1003700025C024C088E290E0FC018081882351F0F0
:1003800088E290E028E230E0F90120812150FC0170
:10039000208314C013C088E290E027E0FC01208392
:1003A0000DC088E290E0FC01108208C088E290E075
:1003B00027E0FC012083000001C00000DF91CF9105
:1003C0000895CF93DF93CDB7DEB781E290E0FC01D3
:1003D000108287E290E02FEFFC01208382E290E020
:1003E0002FEFFC01208388E290E0FC0110820E9444
:1003F000A200FDCFEE0FFF1F0024001C0BBE0790D4
:0A040000F691E02D0994F894FFCF67
:0E040A00000000020000000079000000000069
:00000001FF
