:100000000C9446000C9465000C9465000C946500FB
:100010000C9465000C9465000C9465000C946500CC
:100020000C9465000C9465000C9465000C946500BC
:100030000C9465000C9465000C9465000C946500AC
:100040000C9465000C9465000C9465000C9465009C
:100050000C9465000C9465000C9465000C9465008C
:100060000C9465000C9465000C9465000C9465007C
:100070000C9465000C9465000C9465000C9465006C
:100080000C9465000C9465000C94650011241FBE4F
:10009000CFEFD0E4DEBFCDBF11E0A0E0B1E0E6E6F7
:1000A000F3E000E00BBF02C007900D92A231B10750
:1000B000D9F711E0A2E1B1E001C01D92A531B1076D
:1000C000E1F70E9494010C94B1010C940000CF93CD
:1000D000DF9300D01F92CDB7DEB789837B836A831D
:1000E00089818A3031F48A819B81BC018DE00E9434
:1000F000670080EC90E0FC018081882F90E08072A6
:1001000099270097B1F386EC90E02981FC012083C8
:1001100080E090E00F900F900F90DF91CF910895C5
:10012000CF93DF93CDB7DEB7809113019091140187
:100130008230910509F450C08330910530F4009766
:1001400069F08130910589F0C6C08330910509F4CA
:10015000A8C08430910509F48FC0BDC081E090E053
:100160009093140180931301B6C080E290E0FC01EB
:100170008081882F90E0877899278038910539F41D
:1001800083E090E0909314018093130124C080E2F7
:1001900090E0FC018081882F90E09C01277033273C
:1001A00080911201882F90E0825F9E4FFC01808138
:1001B000882F90E02817390739F482E090E0909377
:1001C00014018093130107C081E090E09093140123
:1001D0008093130180C07FC080E290E0FC018081A9
:1001E000882F90E08770992781309105A9F485E2E6
:1001F00090E0FC018081882F90E081709927009722
:1002000059F080911201833039F483E090E09093AB
:100210001401809313012FC080E290E0FC018081E3
:10022000882F90E0877099278130910559F480914B
:100230001201833039F484E090E0909314018093AC
:10024000130119C080E290E0FC018081882361F4F1
:10025000809112018F5F8093120181E090E0909372
:1002600014018093130107C082E090E09093140181
:100270008093130130C02FC080E290E0FC018081A8
:10028000882349F41092120181E090E090931401C8
:100290008093130106C084E090E090931401809352
:1002A000130180E290E0FC018081882F90E0877844
:1002B00099278038910539F483E090E090931401F8
:1002C0008093130108C01092120181E090E0909396
:1002D00014018093130180911301909114018230D5
:1002E0009105F1F08330910518F4009741F019C0A1
:1002F0008330910579F08430910531F012C085E2A8
:1003000090E0FC0110820DC085E290E021E0FC014C
:10031000208307C085E290E0FC011082000001C04C
:100320000000DF91CF910895CF93DF93CDB7DEB773
:1003300081E290E0FC01108284E290E02FEFFC016A
:10034000208382E290E02FEFFC01208385E290E0A1
:10035000FC01108210921401109213010E9490006F
:06036000FDCFF894FFCF71
:100366000000000200000000670000000000040119
:02037600020182
:00000001FF
