:100000000C9446000C9465000C9465000C946500FB
:100010000C9465000C9465000C9465000C946500CC
:100020000C9465000C9465000C9465000C946500BC
:100030000C9465000C9465000C9465000C946500AC
:100040000C9465000C9465000C9465000C9465009C
:100050000C9465000C9465000C9465000C9465008C
:100060000C9465000C9465000C9465000C9465007C
:100070000C9465000C9465000C9465000C9465006C
:100080000C9465000C9465000C94650011241FBE4F
:10009000CFEFD0E4DEBFCDBF11E0A0E0B1E0E0EBF8
:1000A000F3E000E00BBF02C007900D92AE30B10745
:1000B000D9F711E0AEE0B1E001C01D92A031B10767
:1000C000E1F70E94B9010C94D6010C940000CF9383
:1000D000DF9300D01F92CDB7DEB789837B836A831D
:1000E00089818A3031F48A819B81BC018DE00E9434
:1000F000670080EC90E0FC018081882F90E08072A6
:1001000099270097B1F386EC90E02981FC012083C8
:1001100080E090E00F900F900F90DF91CF910895C5
:10012000CF93DF93CDB7DEB780910E0190910F0191
:100130008230910509F449C08330910530F400976D
:1001400089F081309105A9F0E6C08430910509F469
:100150009FC08430910508F458C08530910509F49A
:10016000B0C0D9C081E090E090930F0180930E0160
:10017000D2C080E290E0FC018081882F90E08778F7
:1001800099278038910539F485E090E090930F012C
:1001900080930E0119C080E290E0FC018081882FDD
:1001A00090E0877099278430910539F482E090E0DF
:1001B00090930F0180930E0107C081E090E090932F
:1001C0000F0180930E01A7C0A6C080E290E0FC0161
:1001D0008081882F90E0877099278430910539F4C9
:1001E00082E090E090930F0180930E010DC080E2B9
:1001F00090E0FC018081882339F483E090E09093C3
:100200000F0180930E0187C086C080E290E0FC0160
:100210008081882F90E0877099278230910589F43A
:1002200085E290E0FC018081882F90E08170992721
:10023000009739F085E090E090930F0180930E01D4
:1002400026C080E290E0FC018081882F90E08770DA
:1002500099278230910539F484E090E090930F0162
:1002600080930E0114C080E290E0FC01808188231D
:1002700039F081E090E090930F0180930E0107C068
:1002800083E090E090930F0180930E0144C043C03F
:1002900080E290E0FC018081882F90E087709927B0
:1002A0008230910539F484E090E090930F018093BF
:1002B0000E0131C081E090E090930F0180930E0118
:1002C0002AC080E290E0FC018081882F90E0877056
:1002D00099278230910539F485E090E090930F01E1
:1002E00080930E0118C080E290E0FC018081882F8D
:1002F00090E0877899278038910539F485E090E07F
:1003000090930F0180930E0106C081E090E09093DE
:100310000F0180930E0180910E0190910F018230A8
:10032000910509F18330910518F4009759F01EC02A
:100330008430910561F084309105B8F085309105E5
:1003400061F014C085E290E0FC0110820FC085E2EC
:1003500090E021E0FC01208309C085E290E0FC01EF
:100360001082000003C0000001C00000DF91CF91A7
:100370000895CF93DF93CDB7DEB781E290E0FC0123
:10038000108284E290E02FEFFC01208382E290E073
:100390002FEFFC01208385E290E0FC011082109297
:1003A0000F0110920E010E949000FDCFF894FFCF34
:0E03B0000000000200000000670000000000D6
:00000001FF
