:100000000C9446000C9465000C9465000C946500FB
:100010000C9465000C9465000C9465000C946500CC
:100020000C9465000C9465000C9465000C946500BC
:100030000C9465000C9465000C9465000C946500AC
:100040000C9465000C9465000C9465000C9465009C
:100050000C9465000C9465000C9465000C9465008C
:100060000C9465000C9465000C9465000C9465007C
:100070000C9465000C9465000C9465000C9465006C
:100080000C9465000C9465000C94650011241FBE4F
:10009000CFEFD0E4DEBFCDBF11E0A0E0B1E0EEECE9
:1000A000F2E000E00BBF02C007900D92AE30B10746
:1000B000D9F711E0AEE0B1E001C01D92A031B10767
:1000C000E1F70E9448010C9465010C940000CF9365
:1000D000DF9300D01F92CDB7DEB789837B836A831D
:1000E00089818A3031F48A819B81BC018DE00E9434
:1000F000670080EC90E0FC018081882F90E08072A6
:1001000099270097B1F386EC90E02981FC012083C8
:1001100080E090E00F900F900F90DF91CF910895C5
:10012000CF93DF93CDB7DEB780910E0190910F0191
:1001300082309105D9F18330910530F4009769F050
:100140008130910589F07CC08330910509F450C05D
:100150008430910509F460C073C081E090E0909311
:100160000F0180930E0173C080E290E0FC0180815A
:10017000882339F484E090E090930F0180930E017E
:1001800014C080E290E0FC018081882339F081E096
:1001900090E090930F0180930E0107C081E090E002
:1001A00090930F0180930E0152C051C080E290E005
:1001B000FC018081882339F483E090E090930F0163
:1001C00080930E0114C080E290E0FC0180818823BE
:1001D00039F082E090E090930F0180930E0107C008
:1001E00082E090E090930F0180930E0130C02FC009
:1001F00080E290E0FC018081882339F081E090E08A
:1002000090930F0180930E0122C083E090E09093C1
:100210000F0180930E011BC080E290E0FC01808101
:10022000882339F082E090E090930F0180930E01D3
:100230000EC084E090E090930F0180930E0107C000
:1002400081E090E090930F0180930E010000809177
:100250000E0190910F018230910571F0833091056C
:1002600088F4009789F08130910579F485E290E077
:1002700021E0FC01208309C085E290E022E0FC013E
:10028000208303C0000001C00000DF91CF910895DA
:10029000CF93DF93CDB7DEB781E290E0FC0110820F
:1002A00084E290E02FEFFC01208382E290E02FEFC8
:1002B000FC01208385E290E0FC01108210920F0186
:0E02C00010920E010E949000FDCFF894FFCF27
:0E02CE000000000200000000670000000000B9
:00000001FF
