:100000000C9446000C9465000C9465000C946500FB
:100010000C9465000C9465000C9465000C946500CC
:100020000C9465000C9465000C9465000C946500BC
:100030000C9465000C9465000C9465000C946500AC
:100040000C9465000C9465000C9465000C9465009C
:100050000C9465000C9465000C9465000C9465008C
:100060000C9465000C9465000C9465000C9465007C
:100070000C9465000C9465000C9465000C9465006C
:100080000C9465000C9465000C94650011241FBE4F
:10009000CFEFD0E4DEBFCDBF11E0A0E0B1E0E0E4FF
:1000A000F3E000E00BBF02C007900D92AE30B10745
:1000B000D9F711E0AEE0B1E001C01D92A031B10767
:1000C000E1F70E9481010C949E010C940000CF93F3
:1000D000DF9300D01F92CDB7DEB789837B836A831D
:1000E00089818A3031F48A819B81BC018DE00E9434
:1000F000670080EC90E0FC018081882F90E08072A6
:1001000099270097B1F386EC90E02981FC012083C8
:1001100080E090E00F900F900F90DF91CF910895C5
:10012000CF93DF93CDB7DEB780910E0190910F0191
:100130008230910591F18330910530F4009769F098
:100140008130910589F0ABC08330910509F44CC032
:100150008430910509F46FC0A2C081E090E09093D3
:100160000F0180930E01A2C080E290E0FC0180812B
:10017000882F90E0877099278430910539F482E0C8
:1001800090E090930F0180930E0190C081E090E089
:1001900090930F0180930E0189C080E290E0FC01F2
:1001A0008081882F90E0877099278430910539F4F9
:1001B00082E090E090930F0180930E0114C080E2E2
:1001C00090E0FC018081882339F483E090E09093F3
:1001D0000F0180930E0107C081E090E090930F0122
:1001E00080930E0163C062C080E290E0FC018081D8
:1001F000882F90E0877099278230910539F484E048
:1002000090E090930F0180930E0114C080E290E083
:10021000FC018081882339F081E090E090930F0108
:1002200080930E0107C083E090E090930F018093CC
:100230000E013CC03BC080E290E0FC018081882F31
:1002400090E0877099278230910539F484E090E03E
:1002500090930F0180930E0121C080E290E0FC0199
:100260008081882339F484E090E090930F0180939B
:100270000E0114C080E290E0FC018081803839F4E6
:1002800081E090E090930F0180930E0107C081E020
:1002900090E090930F0180930E0108C007C081E0A9
:1002A00090E090930F0180930E01000080910E0169
:1002B00090910F0182309105E1F08330910530F487
:1002C0000097C9F08130910541F018C08330910545
:1002D000A1F08430910531F011C085E290E0FC017D
:1002E00010820CC085E290E021E0FC012083000038
:1002F00005C0000003C0000001C00000DF91CF91E5
:100300000895CF93DF93CDB7DEB781E290E0FC0193
:10031000108284E290E02FEFFC01208382E290E0E3
:100320002FEFFC01208385E290E0FC011082109207
:100330000F0110920E010E949000FDCFF894FFCFA4
:0E034000000000020000000067000000000046
:00000001FF
