:100000000C9446000C9465000C9465000C946500FB
:100010000C9465000C9465000C9465000C946500CC
:100020000C9465000C9465000C9465000C946500BC
:100030000C9465000C9465000C9465000C946500AC
:100040000C9465000C9465000C9465000C9465009C
:100050000C9465000C9465000C9465000C9465008C
:100060000C9465000C9465000C9465000C9465007C
:100070000C9465000C9465000C9465000C9465006C
:100080000C9465000C9465000C94650011241FBE4F
:10009000CFEFD0E4DEBFCDBF11E0A0E0B1E0ECE0F7
:1000A000F3E000E00BBF02C007900D92AE30B10745
:1000B000D9F711E0AEE0B1E001C01D92A231B10765
:1000C000E1F70E9448010C9484010C940000CF9346
:1000D000DF9300D01F92CDB7DEB789837B836A831D
:1000E00089818A3031F48A819B81BC018DE00E9434
:1000F000670080EC90E0FC018081882F90E08072A6
:1001000099270097B1F386EC90E02981FC012083C8
:1001100080E090E00F900F900F90DF91CF910895C5
:10012000CF93DF93CDB7DEB780911001909111018D
:1001300082309105D9F18330910530F4009769F050
:100140008130910589F07CC08330910509F450C05D
:100150008430910509F460C073C081E090E0909311
:1001600011018093100173C080E290E0FC01808156
:10017000882339F484E090E090931101809310017A
:1001800014C080E290E0FC018081882339F081E096
:1001900090E0909311018093100107C081E090E0FE
:1001A000909311018093100152C051C080E290E001
:1001B000FC018081882339F483E090E09093110161
:1001C0008093100114C080E290E0FC0180818823BC
:1001D00039F082E090E0909311018093100107C004
:1001E00082E090E0909311018093100130C02FC005
:1001F00080E290E0FC018081882339F081E090E08A
:10020000909311018093100122C083E090E09093BD
:100210001101809310011BC080E290E0FC018081FD
:10022000882339F082E090E09093110180931001CF
:100230000EC084E090E0909311018093100107C0FC
:1002400081E090E090931101809310010000809173
:100250001001909111018230910571F08330910568
:1002600088F4009789F08130910579F485E290E077
:1002700021E0FC01208309C085E290E022E0FC013E
:10028000208303C0000001C00000DF91CF910895DA
:10029000CF93DF9300D000D0CDB7DEB781E290E0FE
:1002A000FC01108284E290E02FEFFC01208382E2C7
:1002B00090E02FEFFC01208385E290E0FC011082AA
:1002C00088EE93E09A83898388EE93E09C838B8306
:1002D00089819A81883EF3E09F0724F00E94900074
:1002E0001A82198289819A8188519C4F9A838983C5
:1002F000000080910E0190910F010097D1F31092B0
:0C0300000F0110920E01E4CFF894FFCF23
:0E030C0000000002000000006700000000007A
:00000001FF
