:100000000C9446000C9465000C9465000C946500FB
:100010000C9465000C9465000C9465000C946500CC
:100020000C9465000C9465000C9465000C946500BC
:100030000C9465000C9465000C9465000C946500AC
:100040000C9465000C9465000C9465000C9465009C
:100050000C9465000C9465000C9465000C9465008C
:100060000C9465000C9465000C9465000C9465007C
:100070000C9465000C9465000C9465000C9465006C
:100080000C9465000C9465000C94650011241FBE4F
:10009000CFEFD0E4DEBFCDBF11E0A0E0B1E0E2EFF2
:1000A000F2E000E00BBF02C007900D92AE30B10746
:1000B000D9F711E0AEE0B1E001C01D92A231B10765
:1000C000E1F70E945A010C9477010C940000CF9341
:1000D000DF9300D01F92CDB7DEB789837B836A831D
:1000E00089818A3031F48A819B81BC018DE00E9434
:1000F000670080EC90E0FC018081882F90E08072A6
:1001000099270097B1F386EC90E02981FC012083C8
:1001100080E090E00F900F900F90DF91CF910895C5
:10012000CF93DF93CDB7DEB780911001909111018D
:100130008230910569F18330910530F4009769F0C0
:100140008130910589F084C08330910509F446C05F
:100150008430910509F45AC07BC081E090E090930F
:100160001101809310017BC080E290E0FC0180814E
:10017000843039F482E090E0909311018093100173
:100180006EC081E090E0909311018093100167C0F0
:1001900080E290E0FC018081843039F482E090E0DC
:1001A000909311018093100118C080E290E0FC014F
:1001B0008081882339F483E090E09093110180934B
:1001C00010010BC080E290E0FC01808182E090E0B1
:1001D000909311018093100142C041C080E290E0F1
:1001E000FC018081813039F484E090E0909311012A
:1001F000809310010AC080E290E0FC01808181E0E0
:1002000090E0909311018093100129C080E290E06A
:10021000FC018081823039F484E090E090931101F8
:100220008093100114C080E290E0FC01808180384E
:1002300039F481E090E0909311018093100107C0A0
:1002400084E090E0909311018093100108C007C0F2
:1002500081E090E090931101809310010000809163
:1002600010019091110182309105E1F083309105E8
:1002700030F40097C9F08130910541F018C0833007
:100280009105A1F08430910531F011C085E290E034
:10029000FC0110820CC085E290E021E0FC0120838B
:1002A000000005C0000003C0000001C00000DF9195
:1002B000CF910895CF93DF93CDB7DEB781E290E081
:1002C000FC01108284E290E02FEFFC01208382E2A7
:1002D00090E02FEFFC01208385E290E0FC0110828A
:1002E00010921101109210010E949000FDCFF8941D
:0202F000FFCF3E
:0E02F200000000020000000067000000000095
:00000001FF
