:100000000C9458000C9477000C9477000C947700B3
:100010000C9477000C9477000C9477000C94770084
:100020000C9477000C9477000C9477000C94770074
:100030000C9477000C9477000C9477000C94770064
:100040000C9477000C9477000C9477000C94770054
:100050000C9477000C9477000C9477000C94770044
:100060000C9477000C9477000C9477000C94770034
:100070000C9477000C9477000C9477000C94770024
:100080000C9477000C9477000C947700BC00C300AC
:10009000F800FF0034013B0142017001A501080294
:1000A0000802DB010802EC01FD010302080208025C
:1000B00011241FBECFEFD0E4DEBFCDBF11E0A0E022
:1000C000B1E0ECE6F4E000E00BBF02C007900D9257
:1000D000AE30B107D9F711E0AEE0B1E001C01D923A
:1000E000A231B107E1F70E940C020C9434020C9487
:1000F0000000CF93DF9300D01F92CDB7DEB7898386
:100100007B836A8389818A3031F48A819B81BC0137
:100110008DE00E94790080EC90E0FC018081882FC6
:1001200090E0807299270097B1F386EC90E02981E6
:10013000FC01208380E090E00F900F900F90DF9102
:10014000CF910895CF93DF93CDB7DEB780911001A3
:1001500090911101CC01A0E0B0E040E050E028E037
:1001600030E0841B950B2817390708F408C18A5B17
:100170009F4FFC010C942B0285E090E090931101BD
:100180008093100103C180E290E0FC01808188230C
:1001900039F082E090E0909311018093100127C024
:1001A00080E290E0FC018081882339F084E090E0D7
:1001B00090931101809310011AC080E290E0FC013D
:1001C0008081882369F080E290E0FC0180818823AF
:1001D00039F086E090E0909311018093100107C000
:1001E00081E090E09093110180931001CFC0CEC0C8
:1001F00083E090E09093110180931001C7C080E2EA
:1002000090E0FC018081882369F080E290E0FC01AD
:100210008081882339F086E090E0909311018093EB
:10022000100121C080E290E0FC018081882339F038
:1002300083E090E0909311018093100114C080E25C
:1002400090E0FC018081882339F488E090E090936D
:1002500011018093100107C083E090E09093110199
:100260008093100193C092C087E090E090931101B9
:10027000809310018BC081E090E0909311018093F6
:10028000100184C080E290E0FC018081882331F07D
:1002900080E290E0FC018081882339F481E090E0E5
:1002A00090931101809310011AC080E290E0FC014C
:1002B0008081882369F080E290E0FC0180818823BE
:1002C00039F086E090E0909311018093100107C00F
:1002D00086E090E0909311018093100157C056C0C2
:1002E00080E290E0FC018081882339F488E090E08E
:1002F000909311018093100127C080E290E0FC01EF
:100300008081882339F087E090E0909311018093F9
:1003100010011AC080E290E0FC018081882369F01E
:1003200080E290E0FC018081882339F086E090E053
:10033000909311018093100107C087E090E09093A3
:1003400011018093100122C021C080E290E0FC01E5
:100350008081882331F480E290E0FC018081882351
:1003600039F081E090E090931101809310010EC06C
:1003700088E090E0909311018093100107C085E020
:1003800090E0909311018093100100008091100182
:1003900090911101CC01A0E0B0E040E050E028E0F5
:1003A00030E0841B950B2817390798F1815B9F4F2C
:1003B000FC010C942B0288E290E0FC0180818930E2
:1003C00050F488E290E028E230E0F90120812F5FCC
:1003D000FC0120831EC01DC088E290E0FC018081EA
:1003E000882351F088E290E028E230E0F901208192
:1003F0002150FC0120830DC00CC088E290E027E072
:10040000FC01208306C088E290E0FC01108201C05C
:100410000000DF91CF910895CF93DF93CDB7DEB782
:1004200081E290E021E0FC01208387E290E02FEF61
:10043000FC01208382E290E02FEFFC01208388E220
:1004400090E021E0FC012083109211011092100134
:100450000E94A200FDCFEE0FFF1F0024001C0BBE68
:0C0460000790F691E02D0994F894FFCF6E
:0E046C00000000020000000079000000000007
:00000001FF
